{
  "_format": "hh-sol-artifact-1",
  "contractName": "TrustlessLove",
  "sourceName": "src/TrustlessLove.sol",
  "abi": [
    {
      "inputs": [],
      "name": "ZamaProtocolUnsupported",
      "type": "error"
    },
    {
      "anonymous": false,
      "inputs": [
        {
          "indexed": true,
          "internalType": "address",
          "name": "requester",
          "type": "address"
        },
        {
          "indexed": true,
          "internalType": "address",
          "name": "target",
          "type": "address"
        },
        {
          "indexed": false,
          "internalType": "uint256",
          "name": "handle",
          "type": "uint256"
        }
      ],
      "name": "MatchCheckPrepared",
      "type": "event"
    },
    {
      "anonymous": false,
      "inputs": [
        {
          "indexed": false,
          "internalType": "address",
          "name": "user",
          "type": "address"
        }
      ],
      "name": "UserRegistered",
      "type": "event"
    },
    {
      "anonymous": false,
      "inputs": [
        {
          "indexed": true,
          "internalType": "address",
          "name": "from",
          "type": "address"
        },
        {
          "indexed": true,
          "internalType": "address",
          "name": "to",
          "type": "address"
        }
      ],
      "name": "VoteCast",
      "type": "event"
    },
    {
      "inputs": [],
      "name": "confidentialProtocolId",
      "outputs": [
        {
          "internalType": "uint256",
          "name": "",
          "type": "uint256"
        }
      ],
      "stateMutability": "view",
      "type": "function"
    },
    {
      "inputs": [
        {
          "internalType": "address",
          "name": "user",
          "type": "address"
        }
      ],
      "name": "getMatchResultHandle",
      "outputs": [
        {
          "internalType": "uint256",
          "name": "",
          "type": "uint256"
        }
      ],
      "stateMutability": "view",
      "type": "function"
    },
    {
      "inputs": [
        {
          "internalType": "address",
          "name": "from",
          "type": "address"
        },
        {
          "internalType": "address",
          "name": "to",
          "type": "address"
        }
      ],
      "name": "hasVoted",
      "outputs": [
        {
          "internalType": "bool",
          "name": "",
          "type": "bool"
        }
      ],
      "stateMutability": "view",
      "type": "function"
    },
    {
      "inputs": [
        {
          "internalType": "address",
          "name": "user",
          "type": "address"
        },
        {
          "internalType": "address",
          "name": "target",
          "type": "address"
        }
      ],
      "name": "isMatchRevealed",
      "outputs": [
        {
          "internalType": "bool",
          "name": "",
          "type": "bool"
        }
      ],
      "stateMutability": "view",
      "type": "function"
    },
    {
      "inputs": [
        {
          "internalType": "address",
          "name": "",
          "type": "address"
        }
      ],
      "name": "matchResultHandles",
      "outputs": [
        {
          "internalType": "uint256",
          "name": "",
          "type": "uint256"
        }
      ],
      "stateMutability": "view",
      "type": "function"
    },
    {
      "inputs": [
        {
          "internalType": "address",
          "name": "",
          "type": "address"
        },
        {
          "internalType": "address",
          "name": "",
          "type": "address"
        }
      ],
      "name": "matchRevealed",
      "outputs": [
        {
          "internalType": "bool",
          "name": "",
          "type": "bool"
        }
      ],
      "stateMutability": "view",
      "type": "function"
    },
    {
      "inputs": [
        {
          "internalType": "address",
          "name": "target",
          "type": "address"
        }
      ],
      "name": "prepareMatchCheck",
      "outputs": [
        {
          "internalType": "uint256",
          "name": "",
          "type": "uint256"
        }
      ],
      "stateMutability": "nonpayable",
      "type": "function"
    },
    {
      "inputs": [],
      "name": "register",
      "outputs": [],
      "stateMutability": "nonpayable",
      "type": "function"
    },
    {
      "inputs": [
        {
          "internalType": "address",
          "name": "",
          "type": "address"
        }
      ],
      "name": "registered",
      "outputs": [
        {
          "internalType": "bool",
          "name": "",
          "type": "bool"
        }
      ],
      "stateMutability": "view",
      "type": "function"
    },
    {
      "inputs": [
        {
          "internalType": "address",
          "name": "target",
          "type": "address"
        },
        {
          "internalType": "externalEbool",
          "name": "inputEbool",
          "type": "bytes32"
        },
        {
          "internalType": "bytes",
          "name": "inputProof",
          "type": "bytes"
        }
      ],
      "name": "vote",
      "outputs": [],
      "stateMutability": "nonpayable",
      "type": "function"
    }
  ],
  "bytecode": "0x608060405234801561001057600080fd5b506100c561001c6100ca565b80517f9e7b61f58c47dc699ac88507c4f5bb9f121c03808c5676a8078fe583e464970080546001600160a01b03199081166001600160a01b039384161790915560208301517f9e7b61f58c47dc699ac88507c4f5bb9f121c03808c5676a8078fe583e46497018054831691841691909117905560408301517f9e7b61f58c47dc699ac88507c4f5bb9f121c03808c5676a8078fe583e46497028054909216921691909117905550565b61023d565b6040805160608101825260008082526020820181905291810191909152466001036101255750604080516060808201835260008083526020808401829052928401819052835191820184528082529181018290529182015290565b4662aa36a7036101a55750604080516060808201835260008083526020808401829052928401528251908101835273f0ffdc93b7e186bc2f8cb3daa75d86d1930a433d81527392c920834ec8941d2c77d188936e1f7a6f49c1279181019190915273be0e383937d564d7ff0bc3b46c51f0bf8d5c311a9181019190915290565b46617a69036102245750604080516060808201835260008083526020808401829052928401528251908101835273f0ffdc93b7e186bc2f8cb3daa75d86d1930a433d81527392c920834ec8941d2c77d188936e1f7a6f49c1279181019190915273be0e383937d564d7ff0bc3b46c51f0bf8d5c311a9181019190915290565b6040516373cac13b60e01b815260040160405180910390fd5b610bc18061024c6000396000f3fe608060405234801561001057600080fd5b506004361061009e5760003560e01c80636a51d230116100665780636a51d230146101375780638927b0301461017357806389a4c8741461017b57806395c1ccca146101a4578063b2dd5c07146101c457600080fd5b80631aa3a008146100a357806321694d4d146100ad5780634d4d2b1c146100f057806355c67414146101035780635b64b09f14610124575b600080fd5b6100ab6101e7565b005b6100db6100bb3660046109d3565b600360209081526000928352604080842090915290825290205460ff1681565b60405190151581526020015b60405180910390f35b6100db6100fe3660046109d3565b610235565b610116610111366004610a06565b610267565b6040519081526020016100e7565b6100ab610132366004610a21565b61047a565b6100db6101453660046109d3565b6001600160a01b03918216600090815260036020908152604080832093909416825291909152205460ff1690565b6101166105eb565b610116610189366004610a06565b6001600160a01b031660009081526002602052604090205490565b6101166101b2366004610a06565b60026020526000908152604090205481565b6100db6101d2366004610a06565b60006020819052908152604090205460ff1681565b3360008181526020818152604091829020805460ff1916600117905590519182527f54db7a5cb4735e1aac1f53db512d3390390bb6637bd30ad4bf9fc98667d9b9b9910160405180910390a1565b6001600160a01b03828116600090815260016020908152604080832093851683529290529081205415155b9392505050565b3360009081526020819052604081205460ff166102c15760405162461bcd60e51b8152602060048201526013602482015272155cd95c881b9bdd081c9959da5cdd195c9959606a1b60448201526064015b60405180910390fd5b6001600160a01b03821660009081526020819052604090205460ff166103215760405162461bcd60e51b815260206004820152601560248201527415185c99d95d081b9bdd081c9959da5cdd195c9959605a1b60448201526064016102b8565b3360008181526001602081815260408084206001600160a01b038816855282528084205492825280842094845293905291902054816103ac5760405162461bcd60e51b815260206004820152602160248201527f596f7520686176656e277420766f74656420666f7220746869732074617267656044820152601d60fa1b60648201526084016102b8565b806103f95760405162461bcd60e51b815260206004820152601b60248201527f546172676574206861736e277420766f74656420666f7220796f75000000000060448201526064016102b8565b600061040583836105fa565b90506104108161062c565b5061041b813361063c565b5033600081815260026020908152604091829020849055905183815283926001600160a01b0389169290917f727db59d44b6c4382388e0db3e53a86d8013fcd5aeef7a1ba37915153556c9f8910160405180910390a395945050505050565b3360009081526020819052604090205460ff166104cf5760405162461bcd60e51b8152602060048201526013602482015272155cd95c881b9bdd081c9959da5cdd195c9959606a1b60448201526064016102b8565b6001600160a01b03841660009081526020819052604090205460ff1661052f5760405162461bcd60e51b815260206004820152601560248201527415185c99d95d081b9bdd081c9959da5cdd195c9959605a1b60448201526064016102b8565b60006105718484848080601f01602080910402602001604051908101604052809392919081815260200183838082843760009201919091525061064f92505050565b3360009081526001602090815260408083206001600160a01b038a168452909152902081905590506105a28161062c565b506105ad813361063c565b506040516001600160a01b0386169033907f113ed09b18bb8fe2635af16f21d67464502d920ff1015abfe08dbe9a2971a7e290600090a35050505050565b60006105f561065d565b905090565b60008261060e5761060b6000610694565b92505b816106205761061d6000610694565b91505b610260838360006106b8565b60006106388230610774565b5090565b60006106488383610774565b5090919050565b6000610260838360006107f1565b60004660010361066d5750600190565b4662aa36a70361067e575061271190565b46617a690361068e575060001990565b50600090565b60006106b2826106a55760006106a8565b60015b60ff166000610908565b92915050565b60008082156106cc5750600160f81b6106d0565b5060005b6000600080516020610b6c833981519152600181015460405163d99882d560e01b815260048101899052602481018890526001600160f81b0319851660448201529192506001600160a01b03169063d99882d5906064016020604051808303816000875af1158015610746573d6000803e3d6000fd5b505050506040513d601f19601f8201168201806040525081019061076a9190610aa8565b9695505050505050565b6000600080516020610b6c8339815191528054604051635ca4b5b160e11b8152600481018690526001600160a01b03858116602483015292935091169063b9496b6290604401600060405180830381600087803b1580156107d457600080fd5b505af11580156107e8573d6000803e3d6000fd5b50505050505050565b7f9e7b61f58c47dc699ac88507c4f5bb9f121c03808c5676a8078fe583e46497015460405163045fc19560e11b8152600091600080516020610b6c833981519152916001600160a01b03909116906308bf832a90610859908890339089908990600401610ae3565b6020604051808303816000875af1158015610878573d6000803e3d6000fd5b505050506040513d601f19601f8201168201806040525081019061089c9190610aa8565b8154604051630f8e573b60e21b8152600481018390523360248201529193506001600160a01b031690633e395cec90604401600060405180830381600087803b1580156108e857600080fd5b505af11580156108fc573d6000803e3d6000fd5b50505050509392505050565b7f9e7b61f58c47dc699ac88507c4f5bb9f121c03808c5676a8078fe583e464970154604051639cd07acb60e01b8152600091600080516020610b6c833981519152916001600160a01b0390911690639cd07acb9061096c9087908790600401610b57565b6020604051808303816000875af115801561098b573d6000803e3d6000fd5b505050506040513d601f19601f820116820180604052508101906109af9190610aa8565b949350505050565b80356001600160a01b03811681146109ce57600080fd5b919050565b600080604083850312156109e657600080fd5b6109ef836109b7565b91506109fd602084016109b7565b90509250929050565b600060208284031215610a1857600080fd5b610260826109b7565b60008060008060608587031215610a3757600080fd5b610a40856109b7565b935060208501359250604085013567ffffffffffffffff80821115610a6457600080fd5b818701915087601f830112610a7857600080fd5b813581811115610a8757600080fd5b886020828501011115610a9957600080fd5b95989497505060200194505050565b600060208284031215610aba57600080fd5b5051919050565b60548110610adf57634e487b7160e01b600052602160045260246000fd5b9052565b8481526000602060018060a01b038616602084015260806040840152845180608085015260005b81811015610b265786810183015185820160a001528201610b0a565b50600060a0828601015260a0601f19601f83011685010192505050610b4e6060830184610ac1565b95945050505050565b828152604081016102606020830184610ac156fe9e7b61f58c47dc699ac88507c4f5bb9f121c03808c5676a8078fe583e4649700a264697066735822122060977c8611815e01ecbc100831d2a15d2b1efb4839900e8a9d2e4591d60450ae64736f6c63430008180033",
  "linkReferences": {},
  "deployedLinkReferences": {}
}